{
  "_format": "hh-sol-artifact-1",
  "contractName": "Sudoku",
  "sourceName": "contracts/Sudoku.sol",
  "abi": [
    {
      "inputs": [
        {
          "internalType": "address",
          "name": "_verifierAddr",
          "type": "address"
        }
      ],
      "stateMutability": "nonpayable",
      "type": "constructor"
    },
    {
      "inputs": [
        {
          "internalType": "string",
          "name": "stringTime",
          "type": "string"
        }
      ],
      "name": "generateSudokuBoard",
      "outputs": [
        {
          "internalType": "uint8[9][9]",
          "name": "",
          "type": "uint8[9][9]"
        }
      ],
      "stateMutability": "view",
      "type": "function"
    },
    {
      "inputs": [],
      "name": "verifierAddr",
      "outputs": [
        {
          "internalType": "address",
          "name": "",
          "type": "address"
        }
      ],
      "stateMutability": "view",
      "type": "function"
    },
    {
      "inputs": [
        {
          "internalType": "uint256[2]",
          "name": "a",
          "type": "uint256[2]"
        },
        {
          "internalType": "uint256[2][2]",
          "name": "b",
          "type": "uint256[2][2]"
        },
        {
          "internalType": "uint256[2]",
          "name": "c",
          "type": "uint256[2]"
        },
        {
          "internalType": "uint256[81]",
          "name": "input",
          "type": "uint256[81]"
        }
      ],
      "name": "verifyProof",
      "outputs": [
        {
          "internalType": "bool",
          "name": "",
          "type": "bool"
        }
      ],
      "stateMutability": "view",
      "type": "function"
    },
    {
      "inputs": [
        {
          "internalType": "uint256[2]",
          "name": "a",
          "type": "uint256[2]"
        },
        {
          "internalType": "uint256[2][2]",
          "name": "b",
          "type": "uint256[2][2]"
        },
        {
          "internalType": "uint256[2]",
          "name": "c",
          "type": "uint256[2]"
        },
        {
          "internalType": "uint256[81]",
          "name": "input",
          "type": "uint256[81]"
        }
      ],
      "name": "verifySudoku",
      "outputs": [
        {
          "internalType": "bool",
          "name": "",
          "type": "bool"
        }
      ],
      "stateMutability": "view",
      "type": "function"
    }
  ],
  "bytecode": "0x6001610200818152600261022081905260076102408190526005610260819052600861028081905260046102a081905260066102c081905260096102e0819052600361030081905260e09889526103208581526103408790526103608490526103808290526103a08890526103c08390526103e08b9052610400899052610420859052610100526104408181526104608590526104808390526104a08490526104c08990526104e08b9052610500869052610520889052610540879052610120526105608481526105808890526105a08b90526105c08390526105e0879052610600869052610620899052610640829052610660849052610140526106808881526106a08490526106c08690526106e08890526107008b9052610720829052610740879052610760859052610780839052610160526107a08281526107c08290526107e08790526108008590526108208490526108408990526108608890526108808b90526108a0869052610180526108c08681526108e08690526109008290526109208990526109408390526109608890526109808590526109a08490526109c08b90526101a0526109e0878152610a008b9052610a20859052610a40869052610a60829052610a80849052610aa0839052610ac0879052610ae08990526101c052610b00838152610b20839052610b40899052610b608b9052610b80859052610ba0879052610bc08290526000610be0819052610c008990526101e0919091526080998a52610d40818152610d608a9052610d80899052610da0889052610dc0829052610de0869052610e00829052610e20829052610e40829052610c20908152610e60828152610e80839052610ea0839052610ec0849052610ee08a9052610f00839052610f20839052610f40839052610f60879052610c4052610f80838152610fa0839052610fc0839052610fe0839052611000839052611020839052611040889052611060839052611080839052610c60526110a08681526110c08a90526110e08390526111008590526111208990526111408890526111608390526111808490526111a0869052610c80526111c08a81526111e08690526112008890526112208a90526112408d90526112608390526112808390526112a08790526112c0859052610ca0526112e08281526113008390526113208390526113408390526113608390526113808b90526113a08390526113c08d90526113e0889052610cc0526114008281526114208890526114408490526114608390526114808590526114a08390526114c08790526114e0839052611500839052610ce0526115208981526115408d90526115608390526115808390526115a08390526115c08390526115e08590526116008390526116208b9052610d00526116408281526116608390526116808390526116a08390526116c08390526116e08990526117008390526117208390526117408a9052610d205260a0526118808181526118a08290526118c08290526118e08290526119008290526119208590526119408290526119608290526119808290526117609081526119a08281526119c08390526119e08a9052611a008b9052611a20839052611a40839052611a60889052611a80839052611aa083905261178052611ac0848152611ae0839052611b00869052611b20889052611b40839052611b60839052611b80839052611ba08d9052611bc08390526117a052611be0838152611c00839052611c20839052611c408a9052611c60839052611c80839052611ca0839052611cc08b9052611ce08590526117c052611d00828152611d20839052611d40839052611d60839052611d80839052611da0839052611dc0839052611de0839052611e008390526117e052611e20868152611e40839052611e60839052611e80899052611ea0839052611ec0839052611ee0839052611f008a9052611f2083905261180052611f40948552611f60889052611f80829052611fa08c9052611fc0829052611fe0829052612000829052612020829052612040829052611820949094526120609586526120808190526120a08b90526120c08190526120e096909652612100869052612120819052612140869052612160869052611840949094526122a06040526121809586526121a0526121c0959095526121e083905261220083905261222083905261224083905261226092909252612280919091526118609190915260c09190915262000665929190620006bc565b503480156200067357600080fd5b506040516200124c3803806200124c833981016040819052620006969162000852565b600080546001600160a01b0319166001600160a01b039290921691909117905562000882565b601b83019183908215620006fc579160200282015b82811115620006fc578251620006eb90839060096200070e565b5091602001919060090190620006d1565b506200070a9291506200075b565b5090565b82600981019282156200074d579160200282015b828111156200074d5782516200073c90839060096200077c565b509160200191906001019062000722565b506200070a92915062000812565b808211156200070a57600062000772828262000828565b506009016200075b565b600183019183908215620008045791602002820160005b83821115620007d357835183826101000a81548160ff021916908360ff160217905550926020019260010160208160000104928301926001030262000793565b8015620008025782816101000a81549060ff0219169055600101602081600001049283019260010302620007d3565b505b506200070a9291506200083c565b808211156200070a576000815560010162000812565b506200083990600981019062000812565b50565b808211156200070a576000815560010162000812565b60006020828403121562000864578081fd5b81516001600160a01b03811681146200087b578182fd5b9392505050565b6109ba80620008926000396000f3fe608060405234801561001057600080fd5b506004361061004c5760003560e01c80633e7c838f14610051578063663ea2e214610079578063c54d8fd3146100a4578063e235ad2a146100c4575b600080fd5b61006461005f366004610565565b6100d7565b60405190151581526020015b60405180910390f35b60005461008c906001600160a01b031681565b6040516001600160a01b039091168152602001610070565b6100b76100b2366004610676565b61018a565b60405161007091906107b0565b6100646100d2366004610565565b6101a1565b60006100e282610231565b6101335760405162461bcd60e51b815260206004820152601960248201527f5468697320626f61726420646f6573206e6f742065786973740000000000000060448201526064015b60405180910390fd5b61013f858585856101a1565b61017f5760405162461bcd60e51b815260206004820152601160248201527046696c65642070726f6f6620636865636b60781b604482015260640161012a565b506001949350505050565b6101926104c3565b61019b826103d2565b92915050565b6000805460405163711ad69560e11b81526001600160a01b039091169063e235ad2a906101d8908890889088908890600401610815565b60206040518083038186803b1580156101f057600080fd5b505afa158015610204573d6000803e3d6000fd5b505050506040513d601f19601f82011682018060405250810190610228919061064f565b95945050505050565b60006001815b60038110156103cb576001915060005b6001826003811061026857634e487b7160e01b600052603260045260246000fd5b505060098110156103a85760005b6001836003811061029757634e487b7160e01b600052603260045260246000fd5b6009020182600981106102ba57634e487b7160e01b600052603260045260246000fd5b5050600981101561039757600183600381106102e657634e487b7160e01b600052603260045260246000fd5b60090201826009811061030957634e487b7160e01b600052603260045260246000fd5b01816009811061032957634e487b7160e01b600052603260045260246000fd5b602081049091015460ff601f9092166101000a900416868261034c8560096108fe565b61035691906108e6565b6051811061037457634e487b7160e01b600052603260045260246000fd5b6020020151146103875760009350610397565b6103908161091d565b9050610276565b506103a18161091d565b9050610247565b50600182151514156103bb575092915050565b6103c48161091d565b9050610237565b5092915050565b6103da6104c3565b60006003444233866040516020016103f59493929190610749565b6040516020818303038152906040528051906020012060001c6104189190610938565b90506001816003811061043b57634e487b7160e01b600052603260045260246000fd5b60408051610120810190915291600991820201906000835b828210156104b757604080516101208101918290529085840190600990826000855b825461010083900a900460ff16815260206001928301818104948501949093039092029101808411610475579050505050505081526020019060010190610453565b50505050915050919050565b6040518061012001604052806009905b6104db6104f1565b8152602001906001900390816104d35790505090565b6040518061012001604052806009906020820280368337509192915050565b600082601f830112610520578081fd5b610528610899565b808385604086011115610539578384fd5b835b600281101561055a57813584526020938401939091019060010161053b565b509095945050505050565b600080600080610b2080868803121561057c578485fd5b6105868787610510565b9450604087605f880112610598578485fd5b6105a0610899565b8082890160c08a018b8111156105b4578889fd5b885b60028110156105dd576105c98d84610510565b8552602090940193918501916001016105b6565b508298506105eb8c82610510565b975050505050508661011f870112610601578182fd5b6106096108c2565b80610100880189848a01111561061d578485fd5b8493505b605184101561064157803583526001939093019260209283019201610621565b509598949750929550505050565b600060208284031215610660578081fd5b8151801515811461066f578182fd5b9392505050565b600060208284031215610687578081fd5b813567ffffffffffffffff8082111561069e578283fd5b818401915084601f8301126106b1578283fd5b8135818111156106c3576106c361096e565b604051601f8201601f19908116603f011681019083821181831017156106eb576106eb61096e565b81604052828152876020848701011115610703578586fd5b826020860160208301379182016020019490945295945050505050565b8060005b6002811015610743578151845260209384019390910190600101610724565b50505050565b8481526000602085818401526bffffffffffffffffffffffff198560601b1660408401528351825b8181101561078d57858101830151858201605401528201610771565b8181111561079e5783605483870101525b50929092016054019695505050505050565b610a20810181836000805b60098082106107ca575061080b565b835185845b838110156107f057825160ff168252602092830192909101906001016107cf565b505050610120949094019350602092909201916001016107bb565b5050505092915050565b610b2081016108248287610720565b60408083018660005b600281101561085457610841838351610720565b918301916020919091019060010161082d565b5050505061086560c0830185610720565b61010082018360005b605181101561088d57815183526020928301929091019060010161086e565b50505095945050505050565b6040805190810167ffffffffffffffff811182821017156108bc576108bc61096e565b60405290565b604051610a20810167ffffffffffffffff811182821017156108bc576108bc61096e565b600082198211156108f9576108f9610958565b500190565b600081600019048311821515161561091857610918610958565b500290565b600060001982141561093157610931610958565b5060010190565b60008261095357634e487b7160e01b81526012600452602481fd5b500690565b634e487b7160e01b600052601160045260246000fd5b634e487b7160e01b600052604160045260246000fdfea264697066735822122016cbd1197a7acd39b24353afc2f32ed89ad9cc7924f3171d9b9e0878f643f85164736f6c63430008040033",
  "linkReferences": {},
  "deployedLinkReferences": {}
}